{
  "_format": "hh-sol-artifact-1",
  "contractName": "Exchange",
  "sourceName": "contracts/Exchange.sol",
  "abi": [
    {
      "inputs": [
        {
          "internalType": "address",
          "name": "_feeAccount",
          "type": "address"
        },
        {
          "internalType": "uint256",
          "name": "_feepercent",
          "type": "uint256"
        }
      ],
      "stateMutability": "nonpayable",
      "type": "constructor"
    },
    {
      "anonymous": false,
      "inputs": [
        {
          "indexed": false,
          "internalType": "address",
          "name": "token",
          "type": "address"
        },
        {
          "indexed": false,
          "internalType": "address",
          "name": "user",
          "type": "address"
        },
        {
          "indexed": false,
          "internalType": "uint256",
          "name": "amount",
          "type": "uint256"
        },
        {
          "indexed": false,
          "internalType": "uint256",
          "name": "balance",
          "type": "uint256"
        }
      ],
      "name": "Deposit",
      "type": "event"
    },
    {
      "anonymous": false,
      "inputs": [
        {
          "indexed": false,
          "internalType": "address",
          "name": "token",
          "type": "address"
        },
        {
          "indexed": false,
          "internalType": "address",
          "name": "user",
          "type": "address"
        },
        {
          "indexed": false,
          "internalType": "uint256",
          "name": "amount",
          "type": "uint256"
        },
        {
          "indexed": false,
          "internalType": "uint256",
          "name": "balance",
          "type": "uint256"
        }
      ],
      "name": "Withdraw",
      "type": "event"
    },
    {
      "inputs": [
        {
          "internalType": "address",
          "name": "_token",
          "type": "address"
        },
        {
          "internalType": "address",
          "name": "_user",
          "type": "address"
        }
      ],
      "name": "balanceOf",
      "outputs": [
        {
          "internalType": "uint256",
          "name": "",
          "type": "uint256"
        }
      ],
      "stateMutability": "view",
      "type": "function"
    },
    {
      "inputs": [
        {
          "internalType": "address",
          "name": "_token",
          "type": "address"
        },
        {
          "internalType": "uint256",
          "name": "_amount",
          "type": "uint256"
        }
      ],
      "name": "depositToken",
      "outputs": [],
      "stateMutability": "nonpayable",
      "type": "function"
    },
    {
      "inputs": [],
      "name": "feeAccount",
      "outputs": [
        {
          "internalType": "address",
          "name": "",
          "type": "address"
        }
      ],
      "stateMutability": "view",
      "type": "function"
    },
    {
      "inputs": [],
      "name": "feePercent",
      "outputs": [
        {
          "internalType": "uint256",
          "name": "",
          "type": "uint256"
        }
      ],
      "stateMutability": "view",
      "type": "function"
    },
    {
      "inputs": [
        {
          "internalType": "address",
          "name": "",
          "type": "address"
        },
        {
          "internalType": "address",
          "name": "",
          "type": "address"
        }
      ],
      "name": "tokens",
      "outputs": [
        {
          "internalType": "uint256",
          "name": "",
          "type": "uint256"
        }
      ],
      "stateMutability": "view",
      "type": "function"
    },
    {
      "inputs": [
        {
          "internalType": "address",
          "name": "_token",
          "type": "address"
        },
        {
          "internalType": "uint256",
          "name": "_amount",
          "type": "uint256"
        }
      ],
      "name": "withdrawToken",
      "outputs": [],
      "stateMutability": "nonpayable",
      "type": "function"
    }
  ],
  "bytecode": "0x608060405234801561001057600080fd5b50604051610b2e380380610b2e83398181016040528101906100329190610119565b816000806101000a81548173ffffffffffffffffffffffffffffffffffffffff021916908373ffffffffffffffffffffffffffffffffffffffff160217905550806001819055505050610159565b600080fd5b600073ffffffffffffffffffffffffffffffffffffffff82169050919050565b60006100b082610085565b9050919050565b6100c0816100a5565b81146100cb57600080fd5b50565b6000815190506100dd816100b7565b92915050565b6000819050919050565b6100f6816100e3565b811461010157600080fd5b50565b600081519050610113816100ed565b92915050565b600080604083850312156101305761012f610080565b5b600061013e858286016100ce565b925050602061014f85828601610104565b9150509250929050565b6109c6806101686000396000f3fe608060405234801561001057600080fd5b50600436106100625760003560e01c8063338b5dea14610067578063508493bc1461008357806365e17c9d146100b35780637fd6f15c146100d15780639e281a98146100ef578063f7888aec1461010b575b600080fd5b610081600480360381019061007c91906106f9565b61013b565b005b61009d60048036038101906100989190610739565b610323565b6040516100aa9190610788565b60405180910390f35b6100bb610348565b6040516100c891906107b2565b60405180910390f35b6100d961036c565b6040516100e69190610788565b60405180910390f35b610109600480360381019061010491906106f9565b610372565b005b61012560048036038101906101209190610739565b6105d9565b6040516101329190610788565b60405180910390f35b8173ffffffffffffffffffffffffffffffffffffffff166323b872dd3330846040518463ffffffff1660e01b8152600401610178939291906107cd565b602060405180830381600087803b15801561019257600080fd5b505af11580156101a6573d6000803e3d6000fd5b505050506040513d601f19601f820116820180604052508101906101ca919061083c565b6101d357600080fd5b80600260008473ffffffffffffffffffffffffffffffffffffffff1673ffffffffffffffffffffffffffffffffffffffff16815260200190815260200160002060003373ffffffffffffffffffffffffffffffffffffffff1673ffffffffffffffffffffffffffffffffffffffff168152602001908152602001600020600082825461025f9190610898565b925050819055507fdcbc1c05240f31ff3ad067ef1ee35ce4997762752e3a095284754544f4c709d7823383600260008773ffffffffffffffffffffffffffffffffffffffff1673ffffffffffffffffffffffffffffffffffffffff16815260200190815260200160002060003373ffffffffffffffffffffffffffffffffffffffff1673ffffffffffffffffffffffffffffffffffffffff1681526020019081526020016000205460405161031794939291906108ee565b60405180910390a15050565b6002602052816000526040600020602052806000526040600020600091509150505481565b60008054906101000a900473ffffffffffffffffffffffffffffffffffffffff1681565b60015481565b80600260008473ffffffffffffffffffffffffffffffffffffffff1673ffffffffffffffffffffffffffffffffffffffff16815260200190815260200160002060003373ffffffffffffffffffffffffffffffffffffffff1673ffffffffffffffffffffffffffffffffffffffff1681526020019081526020016000205410156103fb57600080fd5b8173ffffffffffffffffffffffffffffffffffffffff1663a9059cbb33836040518363ffffffff1660e01b8152600401610436929190610933565b602060405180830381600087803b15801561045057600080fd5b505af1158015610464573d6000803e3d6000fd5b505050506040513d601f19601f82011682018060405250810190610488919061083c565b5080600260008473ffffffffffffffffffffffffffffffffffffffff1673ffffffffffffffffffffffffffffffffffffffff16815260200190815260200160002060003373ffffffffffffffffffffffffffffffffffffffff1673ffffffffffffffffffffffffffffffffffffffff1681526020019081526020016000206000828254610515919061095c565b925050819055507ff341246adaac6f497bc2a656f546ab9e182111d630394f0c57c710a59a2cb567823383600260008773ffffffffffffffffffffffffffffffffffffffff1673ffffffffffffffffffffffffffffffffffffffff16815260200190815260200160002060003373ffffffffffffffffffffffffffffffffffffffff1673ffffffffffffffffffffffffffffffffffffffff168152602001908152602001600020546040516105cd94939291906108ee565b60405180910390a15050565b6000600260008473ffffffffffffffffffffffffffffffffffffffff1673ffffffffffffffffffffffffffffffffffffffff16815260200190815260200160002060008373ffffffffffffffffffffffffffffffffffffffff1673ffffffffffffffffffffffffffffffffffffffff16815260200190815260200160002054905092915050565b600080fd5b600073ffffffffffffffffffffffffffffffffffffffff82169050919050565b600061069082610665565b9050919050565b6106a081610685565b81146106ab57600080fd5b50565b6000813590506106bd81610697565b92915050565b6000819050919050565b6106d6816106c3565b81146106e157600080fd5b50565b6000813590506106f3816106cd565b92915050565b600080604083850312156107105761070f610660565b5b600061071e858286016106ae565b925050602061072f858286016106e4565b9150509250929050565b600080604083850312156107505761074f610660565b5b600061075e858286016106ae565b925050602061076f858286016106ae565b9150509250929050565b610782816106c3565b82525050565b600060208201905061079d6000830184610779565b92915050565b6107ac81610685565b82525050565b60006020820190506107c760008301846107a3565b92915050565b60006060820190506107e260008301866107a3565b6107ef60208301856107a3565b6107fc6040830184610779565b949350505050565b60008115159050919050565b61081981610804565b811461082457600080fd5b50565b60008151905061083681610810565b92915050565b60006020828403121561085257610851610660565b5b600061086084828501610827565b91505092915050565b7f4e487b7100000000000000000000000000000000000000000000000000000000600052601160045260246000fd5b60006108a3826106c3565b91506108ae836106c3565b9250827fffffffffffffffffffffffffffffffffffffffffffffffffffffffffffffffff038211156108e3576108e2610869565b5b828201905092915050565b600060808201905061090360008301876107a3565b61091060208301866107a3565b61091d6040830185610779565b61092a6060830184610779565b95945050505050565b600060408201905061094860008301856107a3565b6109556020830184610779565b9392505050565b6000610967826106c3565b9150610972836106c3565b92508282101561098557610984610869565b5b82820390509291505056fea2646970667358221220cf5a5537d1a3ada29c5318e1911df0dd7edd453bd520230f23f9d4179907f7c164736f6c63430008090033",
  "linkReferences": {},
  "deployedLinkReferences": {}
}