{
  "_format": "hh-sol-artifact-1",
  "contractName": "Token",
  "sourceName": "contracts/Token.sol",
  "abi": [
    {
      "inputs": [
        {
          "internalType": "string",
          "name": "_name",
          "type": "string"
        },
        {
          "internalType": "string",
          "name": "_symbol",
          "type": "string"
        },
        {
          "internalType": "uint256",
          "name": "_totalSupply",
          "type": "uint256"
        }
      ],
      "stateMutability": "nonpayable",
      "type": "constructor"
    },
    {
      "inputs": [
        {
          "internalType": "address",
          "name": "",
          "type": "address"
        }
      ],
      "name": "balanceOf",
      "outputs": [
        {
          "internalType": "uint256",
          "name": "",
          "type": "uint256"
        }
      ],
      "stateMutability": "view",
      "type": "function"
    },
    {
      "inputs": [],
      "name": "decimals",
      "outputs": [
        {
          "internalType": "uint256",
          "name": "",
          "type": "uint256"
        }
      ],
      "stateMutability": "view",
      "type": "function"
    },
    {
      "inputs": [],
      "name": "name",
      "outputs": [
        {
          "internalType": "string",
          "name": "",
          "type": "string"
        }
      ],
      "stateMutability": "view",
      "type": "function"
    },
    {
      "inputs": [],
      "name": "symbol",
      "outputs": [
        {
          "internalType": "string",
          "name": "",
          "type": "string"
        }
      ],
      "stateMutability": "view",
      "type": "function"
    },
    {
      "inputs": [],
      "name": "totalSupply",
      "outputs": [
        {
          "internalType": "uint256",
          "name": "",
          "type": "uint256"
        }
      ],
      "stateMutability": "view",
      "type": "function"
    }
  ],
  "bytecode": "0x6080604052601260025534801561001557600080fd5b50604051610c32380380610c3283398181016040528101906100379190610270565b82600090816100469190610512565b5081600190816100569190610512565b50600254600a6100669190610746565b816100719190610791565b600381905550600354600460003373ffffffffffffffffffffffffffffffffffffffff1673ffffffffffffffffffffffffffffffffffffffff168152602001908152602001600020819055505050506107d3565b6000604051905090565b600080fd5b600080fd5b600080fd5b600080fd5b6000601f19601f8301169050919050565b7f4e487b7100000000000000000000000000000000000000000000000000000000600052604160045260246000fd5b61012c826100e3565b810181811067ffffffffffffffff8211171561014b5761014a6100f4565b5b80604052505050565b600061015e6100c5565b905061016a8282610123565b919050565b600067ffffffffffffffff82111561018a576101896100f4565b5b610193826100e3565b9050602081019050919050565b60005b838110156101be5780820151818401526020810190506101a3565b60008484015250505050565b60006101dd6101d88461016f565b610154565b9050828152602081018484840111156101f9576101f86100de565b5b6102048482856101a0565b509392505050565b600082601f830112610221576102206100d9565b5b81516102318482602086016101ca565b91505092915050565b6000819050919050565b61024d8161023a565b811461025857600080fd5b50565b60008151905061026a81610244565b92915050565b600080600060608486031215610289576102886100cf565b5b600084015167ffffffffffffffff8111156102a7576102a66100d4565b5b6102b38682870161020c565b935050602084015167ffffffffffffffff8111156102d4576102d36100d4565b5b6102e08682870161020c565b92505060406102f18682870161025b565b9150509250925092565b600081519050919050565b7f4e487b7100000000000000000000000000000000000000000000000000000000600052602260045260246000fd5b6000600282049050600182168061034d57607f821691505b6020821081036103605761035f610306565b5b50919050565b60008190508160005260206000209050919050565b60006020601f8301049050919050565b600082821b905092915050565b6000600883026103c87fffffffffffffffffffffffffffffffffffffffffffffffffffffffffffffffff8261038b565b6103d2868361038b565b95508019841693508086168417925050509392505050565b6000819050919050565b600061040f61040a6104058461023a565b6103ea565b61023a565b9050919050565b6000819050919050565b610429836103f4565b61043d61043582610416565b848454610398565b825550505050565b600090565b610452610445565b61045d818484610420565b505050565b5b818110156104815761047660008261044a565b600181019050610463565b5050565b601f8211156104c65761049781610366565b6104a08461037b565b810160208510156104af578190505b6104c36104bb8561037b565b830182610462565b50505b505050565b600082821c905092915050565b60006104e9600019846008026104cb565b1980831691505092915050565b600061050283836104d8565b9150826002028217905092915050565b61051b826102fb565b67ffffffffffffffff811115610534576105336100f4565b5b61053e8254610335565b610549828285610485565b600060209050601f83116001811461057c576000841561056a578287015190505b61057485826104f6565b8655506105dc565b601f19841661058a86610366565b60005b828110156105b25784890151825560018201915060208501945060208101905061058d565b868310156105cf57848901516105cb601f8916826104d8565b8355505b6001600288020188555050505b505050505050565b7f4e487b7100000000000000000000000000000000000000000000000000000000600052601160045260246000fd5b60008160011c9050919050565b6000808291508390505b600185111561066a57808604811115610646576106456105e4565b5b60018516156106555780820291505b808102905061066385610613565b945061062a565b94509492505050565b600082610683576001905061073f565b81610691576000905061073f565b81600181146106a757600281146106b1576106e0565b600191505061073f565b60ff8411156106c3576106c26105e4565b5b8360020a9150848211156106da576106d96105e4565b5b5061073f565b5060208310610133831016604e8410600b84101617156107155782820a9050838111156107105761070f6105e4565b5b61073f565b6107228484846001610620565b92509050818404811115610739576107386105e4565b5b81810290505b9392505050565b60006107518261023a565b915061075c8361023a565b92506107897fffffffffffffffffffffffffffffffffffffffffffffffffffffffffffffffff8484610673565b905092915050565b600061079c8261023a565b91506107a78361023a565b92508282026107b58161023a565b915082820484148315176107cc576107cb6105e4565b5b5092915050565b610450806107e26000396000f3fe608060405234801561001057600080fd5b50600436106100575760003560e01c806306fdde031461005c57806318160ddd1461007a578063313ce5671461009857806370a08231146100b657806395d89b41146100e6575b600080fd5b610064610104565b60405161007191906102d4565b60405180910390f35b610082610192565b60405161008f919061030f565b60405180910390f35b6100a0610198565b6040516100ad919061030f565b60405180910390f35b6100d060048036038101906100cb919061038d565b61019e565b6040516100dd919061030f565b60405180910390f35b6100ee6101b6565b6040516100fb91906102d4565b60405180910390f35b60008054610111906103e9565b80601f016020809104026020016040519081016040528092919081815260200182805461013d906103e9565b801561018a5780601f1061015f5761010080835404028352916020019161018a565b820191906000526020600020905b81548152906001019060200180831161016d57829003601f168201915b505050505081565b60035481565b60025481565b60046020528060005260406000206000915090505481565b600180546101c3906103e9565b80601f01602080910402602001604051908101604052809291908181526020018280546101ef906103e9565b801561023c5780601f106102115761010080835404028352916020019161023c565b820191906000526020600020905b81548152906001019060200180831161021f57829003601f168201915b505050505081565b600081519050919050565b600082825260208201905092915050565b60005b8381101561027e578082015181840152602081019050610263565b60008484015250505050565b6000601f19601f8301169050919050565b60006102a682610244565b6102b0818561024f565b93506102c0818560208601610260565b6102c98161028a565b840191505092915050565b600060208201905081810360008301526102ee818461029b565b905092915050565b6000819050919050565b610309816102f6565b82525050565b60006020820190506103246000830184610300565b92915050565b600080fd5b600073ffffffffffffffffffffffffffffffffffffffff82169050919050565b600061035a8261032f565b9050919050565b61036a8161034f565b811461037557600080fd5b50565b60008135905061038781610361565b92915050565b6000602082840312156103a3576103a261032a565b5b60006103b184828501610378565b91505092915050565b7f4e487b7100000000000000000000000000000000000000000000000000000000600052602260045260246000fd5b6000600282049050600182168061040157607f821691505b602082108103610414576104136103ba565b5b5091905056fea264697066735822122007343f46b95fef1f9b51bac682fbafb5701d2e94316effad2621708c16c44a3964736f6c634300081c0033",
  "linkReferences": {},
  "deployedLinkReferences": {}
}